:100000000C94BA030C94D7030C94D7030C94D70325
:100010000C94D7030C94D7030C94D7030C94D703F8
:100020000C94D7030C94D7030C94EE2C0C94C02D95
:100030000C9448230C94D7030C94D7030C94D70347
:100040000C94D7030C94D7030C94D7030C94D703C8
:100050000C94D7030C94B0230C94D7030C94D703BF
:100060000C94D7030C94D7030C94D7030C94D703A8
:100070000C94D7030C94D7030C94D7030C94D70398
:100080000C94D7030C94D7030C94D7030C94D70388
:100090000C94D7030C94D7030C94D7030C94D70378
:1000A0000C94D7030C94D7030C94D7032F04320479
:1000B000350438043B043E044104520755075A07EF
:1000C000640758075D076207600793089508A00852
:1000D000970899089B089D089F08A208A408A608ED
:1000E000B108A808AA08AC08AE08B008B30871188F
:1000F0007118A318A318DA18F818571AB51A3A196C
:10010000B51ADD19DD194E1AB51AB51AAF1AEA1962
:10011000EA19EA19EA19EA19EA19EA19EA19EA19C7
:10012000EA19EA19EA19EA19EA19EA19EA19FB19A6
:10013000081A0F1A161A201A481B481B5A1B5A1B5A
:10014000511B5A1B5A1B5A1B481B481B561B5A1B38
:100150005A1B561B2D2E542E4C2F542E4C2FA02E96
:10016000C32E4C2F1A2F292F07634236B79BD8A7CF
:100170001A39685618AEBAAB558C1D3CB7CC5763CC
:10018000BD6DEDFD753EF6177231BF000000803F7A
:1001900005A84CCDB2D44EB93836A9020C50B9914D
:1001A0008688083CA6AAAA2ABE000000803F657285
:1001B000676F646F785F657A2F69746174796F20F7
:1001C0004020302E362E3232382D332D67303763B3
:1001D000366334000000F0A129002B00E000E100AC
:1001E000354100001E00140004001D6134004D0064
:1001F0001F001A0016001B00E1042A00200008005E
:100200000700060001512C0021001500090019000B
:1002100068004A00220017000A000500000065641B
:10022000500001510000006F0000E3004F00015139
:1002300000004C050000E20023001C000B00110030
:1002400000002961240018000D00100069004B0017
:1002500025000C000E003600015128002600120077
:100260000F0037002F004C00270013003342386185
:1002700030004E002D0031003468E500C100000060
:10028000E65C010001000100E55C00003A001E028E
:1002900020022202010001003B001F022102230272
:1002A0000100C95C3C002F0226022F000100CA5C3D
:1002B0003D00300227023000010001003E00310203
:1002C000350035020000C35C0100010000000100A0
:1002D0000000010001000100000001000000C25CFC
:1002E0003F005200510024020000E75C400024005F
:1002F00050001E00010001004100520051001F008B
:100300003700C55C420026004F0020002700C65C75
:10031000430025022E0231002E000100440045005A
:10032000010001000100000001000100005C01006B
:1003300001000000010001000100010001000100B6
:1003400001000100F2000100010001000100F000C5
:10035000F1000100F400010001000100F3000100C0
:10036000F500010001000100010001000000010092
:100370000100010000000100000001000100010077
:100380000000010000000100010001000100010067
:10039000000001000100010001000100A9000100AE
:1003A000010001000100AC00AA00B600010001003C
:1003B0000100AB00A80001000100010001000100E4
:1003C0000100010001000100AE0001000100000079
:1003D00000000000000000002A2B280000000000A0
:1003E00000000000000000000000002900000000E4
:1003F0002C1E3420212224342627252E362D373852
:10040000271E1F202122232425263333362E37385A
:100410001F0405060708090A0B0C0D0E0F10111218
:10042000131415161718191A1B1C1D2F3130232DE4
:10043000350405060708090A0B0C0D0E0F101112E2
:10044000131415161718191A1B1C1D2F3130354C93
:10045000000000000000000000000000000000009C
:10046000000000000000000000000000000000008C
:100470000001010101010100010101010000000072
:100480000000000000000000000001000100010168
:10049000010101010101010101010101010101014C
:1004A000010101010101010101010100000001013F
:1004B000000000000000000000000000000000003C
:1004C0000000000000000000000000010101010028
:1004D00000047F3F1F643214643214783C1E1E14E3
:1004E0000A056801F000B40078005A00000000001E
:1004F00000010101010101010101020202020202E7
:1005000002020203030303030303030404040404B9
:10051000040505050505060606060607070707087C
:100520000808080909090A0A0A0A0B0B0B0C0C0C2B
:100530000D0D0D0E0E0F0F0F1010111111121213C1
:10054000131414151516161717181819191A1A1B3B
:100550001C1C1D1D1E1F1F20202122222324252597
:1005600026272728292A2B2B2C2D2E2F2F303132CE
:1005700033343536363738393A3B3C3D3E3F4041DF
:10058000424344464748494A4B4C4D4F50515253C1
:10059000555657585A5B5C5E5F6062636466676974
:1005A0006A6C6D6E707173747678797B7C7E8081F5
:1005B000838486888A8B8D8F91929496989A9B9D3E
:1005C0009FA1A3A5A7A9ABADAFB1B3B5B7B9BBBD4B
:1005D000BFC1C4C6C8CACCCFD1D3D6D8DADCDFE11C
:1005E000E4E6E8EBEDF0F2F5F7FAFCFF0403300087
:1005F000000016034500720067006F0044006F00A2
:100600007800200045005A000000160345007200E3
:1006100067006F0044006F007800200045005A001A
:1006200000000403090409023B00020100A0FA09CA
:100630000400000103010100092111010001224011
:10064000000705810308000A0904010001030000F6
:100650000009211101000122C000070582032000CA
:100660000A1201100100000008EDFE07130100014D
:1006700002030105010902A10185020901A100058A
:1006800009190129051500250195057501810295B6
:1006900001750381010501093009311581257F9517
:1006A000027508810609381581257F950175088135
:1006B00006050C0A38021581257F9501750881060B
:1006C000C0C005010980A1018503160100260300B1
:1006D0001A81002A8300751095018100C0050C095C
:1006E00001A1018504160100269C021A01002A9C22
:1006F00002751095018100C005010906A10185055B
:10070000050719E029E71500250195087501810203
:1007100005081901290595057501910295017503D3
:1007200091010507190029EF1500250195F07501C4
:100730008102C005010906A101050719E029E71595
:100740000025019508750181029501750881010553
:100750000819012905950575019102950175039107
:10076000010507190029FF150026FF0095067508E9
:100770008100C00011241FBECFEFDAE0DEBFCDBF85
:1007800011E0A0E0B1E0ECE9F6E602C005900D92C0
:10079000A43DB107D9F723E0A4EDB1E001C01D925B
:1007A000AA3BB207E1F70E94162A0C944C330C9432
:1007B000000080B38C7080BB81B3836F81BB0895D0
:1007C00084B1807F84B985B1807F85B98AB1837F08
:1007D0008AB98BB1837F8BB93E9846980895CF93A1
:1007E000E82F873090F58091000190910101892BCD
:1007F00009F049C0CE2F64E670E080E40E946005F5
:100800009093010180930001892BD1F464E670E09C
:1008100082E10E94B7059093010180930001892B2A
:1008200079F481E090E001C0880FCA95EAF764E6A8
:1008300070E080950E94B7059093010180930001BC
:1008400084E690E0CF910C940C0690E0FC01379781
:10085000E730F105C0F4EA5AFF4F0C94F132209AC8
:10086000289811C0219A29980EC0229A2A980BC064
:10087000239A2B9808C0529A5A9805C0539A5B98AD
:1008800002C03E9A4698CF91089508950C9445046D
:10089000CF93DF930E949E0690E090930101809396
:1008A00000010E94E0030E94D903E7E3F2E0A9E21D
:1008B000B2E085ED91E011921D92EC0126E01992D3
:1008C0002150E9F7069622E0E534F207A1F7DF911F
:1008D000CF910C94CC070E949E0690E0909301016A
:1008E000809300010E94E0030E94D903E7E3F2E055
:1008F000119282E0E534F807D9F70895CF93DF939A
:10090000E62FF0E0E75DFD4F40814827808386E0D9
:10091000689FF0011124EB52FE4F20E030E080E0B0
:1009200061E070E050E0AAE0B22F9081992319F0C5
:100930009150908307C0EB01022E01C0CC0F0A94A6
:10094000EAF78C2BEA0102C0D595C795BA95E2F774
:10095000C0FDA0832F5F3F4F31962630310521F730
:10096000DF91CF910895CF93DF93D82F873008F090
:1009700040C08091000190910101892B09F042C093
:1009800064E670E080E40E9460059093010180932A
:100990000001892B11F0C0E027C064E670E083E11C
:1009A0000E94B7059093010180930001892B99F76C
:1009B00064E670E081E40E946005909301018093F9
:1009C0000001892B41F784E690E00E94E70597FF3C
:1009D00005C09093010180930001DDCFC82FC09521
:1009E000109201011092000184E690E00E940C0632
:1009F0000AC08FB1CFB1C07FC695C6958370C82B92
:100A0000C09501C0C0E06D2F8C2F0E947E04ED2F99
:100A1000F0E0E95CFD4F282F2095908192238C23F4
:100A2000892BDF91CF9108950F931F93CF93DF937D
:100A30008091000190910101892B91F08091D40166
:100A40008F5F8093D40181110BC00E949E0690E0BD
:100A50009093010180930001892B11F40E943006CC
:100A600007E312E0C0E08C2F0E94EF03D7E0DC0F19
:100A70008D2F0E94EF038C2F0E94B304F801819305
:100A80008F018D2F0E94B304F80186830E94E0033A
:100A9000CF5FC73041F70E94D60781E0DF91CF9149
:100AA0001F910F910895E82FF0E0E95CFD4F8081E0
:100AB000089508951092B9008CE08093B8000895CD
:100AC000EF92FF920F931F93CF93DF93182FEB01B9
:100AD0001092BC0084EA8093BC000E947A237C01BF
:100AE0008091BC0087FD0EC0CF3F8FEFD807C1F3C8
:100AF0000E947A238E199F098C179D0788F38EEF29
:100B00009FEF2EC08091B900887F883041F080919E
:100B1000B900887F803119F08FEF9FEF21C01093CB
:100B2000BB0084E88093BC000E947A238C018091F2
:100B3000BC0087FD0CC0CF3F8FEFD807C1F30E94E8
:100B40007A23801B910B8C179D0788F3D8CF809157
:100B5000B900887F883111F08034F1F680E090E0B0
:100B6000DF91CF911F910F91FF90EF9008950F9318
:100B70001F93CF93DF93EB018093BB0084E88093B6
:100B8000BC000E947A238C018091BC0087FD0EC0BE
:100B9000CF3F8FEFD807C1F30E947A23801B910BC0
:100BA0008C179D0788F38EEF9FEF0CC02091B90042
:100BB000287F81E090E0283211F480E090E0919568
:100BC00081959109DF91CF911F910F9108950F9316
:100BD0001F93CF93DF93EC0184E88093BC000E94C5
:100BE0007A238C018091BC0087FD0EC0CF3F8FEF30
:100BF000D807C1F30E947A23801B910B8C179D07A5
:100C000088F38EEF9FEF03C08091BB0090E0DF91EF
:100C1000CF911F910F9108950F931F93CF93DF935F
:100C2000EC0184E98093BC000E947A238C018091BE
:100C3000BC0084FF0EC0CF3F8FEFD807C1F30E94E6
:100C40007A23801B910B8C179D0788F38EEF9FEF03
:100C500002C080E090E0DF91CF911F910F91089545
:100C600056985E9825982D9826982E9827982F9814
:100C70008FEF90E0909389008093880090938B0091
:100C800080938A0090938D0080938C00259A2D9AF2
:100C90002FEF80E792E0215080409040E1F700C0C4
:100CA0000000269A2E9A2FEF80E792E02150804094
:100CB0009040E1F700C00000279A2F9A2FEF80E7BD
:100CC00092E0215080409040E1F700C0000025985C
:100CD0002D982FEF80E792E0215080409040E1F77F
:100CE00000C0000026982E982FEF80E792E0215058
:100CF00080409040E1F700C0000027982F98569858
:100D00005E9825982D9826982E9827982F980895C4
:100D100089EA8093800089E08093810024982C9850
:100D20003F988AB18F7C8AB96E98479A8BB180635D
:100D30008BB9769A0E9430060C94380780E290E0D6
:100D400090930101809300018091450281110EC0B2
:100D50000E945A0581E0809345022FEF83ED90E3D6
:100D6000215080409040E1F700C0000064E670E050
:100D700080E40E9460059093010180930001892B1B
:100D800009F050C064E670E080E00E94B7059093DF
:100D9000010180930001892B09F044C064E670E0F2
:100DA00080E00E94B7059093010180930001892B98
:100DB000C9F564E670E08FE30E94B70590930101E6
:100DC00080930001892B71F584E690E00E940C0667
:100DD00064E670E080E40E946005909301018093D6
:100DE0000001892BF9F464E670E08CE00E94B705FD
:100DF0009093010180930001892BA1F464E670E0D7
:100E000080E00E94B7059093010180930001892B37
:100E100049F464E670E08FE30E94B7059093010106
:100E20008093000184E690E00E940C06809100010E
:100E300008959C01FB0182818823C1F0263EFCE5D8
:100E40003F0751F0273E9CE5390759F0253E3C45C8
:100E500071F40E94632208C08EEA91E00E94C907E3
:100E600003C081E00E94AC1080E0089581E0089505
:100E70000895CF92DF92EF92FF926B017C0156981A
:100E80005E9825982D9826982E9827982F980E943E
:100E9000A52190E088309105C8F4FC01E35AFF4F8A
:100EA0000C94F1320E94BB1011C0259A2D9A0EC0ED
:100EB000259A2D9A269A2E9A09C0259A2D9A04C011
:100EC000259A2D9A269A2E9A279A2F9AC701B6010B
:100ED000FF90EF90DF90CF90089581E008950C94FB
:100EE0001907CF9390E0FC01E053FC4FC491FC0143
:100EF000E05BFB4F8491882359F081EE0E949416A9
:100F00008C2F0E9494168C2F0E94BE1781EE04C075
:100F10008C2F0E9494168C2FCF910C94BE170F9398
:100F20001F93CF93DF93EC01062FFE01849188235A
:100F300059F19E012F5F3F4F813041F4E901F901E2
:100F40001491812F0E949416812F0DC0823031F4AC
:100F5000E901F90184910E9494160AC0833031F4AA
:100F6000E901F90184910E94BE1702C00E94710735
:100F70002196802F8823C9F2EFE9FFE03197F1F73E
:100F800000C000008150F6CFDF91CF911F910F91EB
:100F9000089560E00C948F070E94F521811102C032
:100FA0000E9463220E942A0D0C9488060C94460429
:100FB000282F2F7041F0822F90E02A3010F44D96A8
:100FC00008950697089587E290E0089508950C9497
:100FD000E6070C94E70708950E94341B0E94EB0774
:100FE0002FEF84E39CE0215080409040E1F700C067
:100FF00000000C94D623FF920F931F93CF93DF939F
:101000008C01FC01C081D18180918F02811113C0BC
:101010008281882349F0CE010E949520F82E682F06
:10102000CE010E943C2004C0CE010E946820F82E10
:10103000BE018F2D04C0CE010E949520BE010E94EA
:10104000990AEC01B8010E946F07882309F466C26F
:10105000B801CE010E94A50D882309F45FC2CC3CE3
:10106000FCE5DF0741F4F8018281882309F456C2C8
:101070000E94860E53C2CD3C8CE5D80708F01EC1F5
:10108000C43C9CE5D90761F4F8018281882309F406
:1010900045C20E9466218272E1F40E94A9103EC2FC
:1010A000C53CECE5DE0708F0C7C0C531FCE5DF074D
:1010B00098F0C23CFCE5DF0709F48CC008F492C04C
:1010C000F8018281882309F429C20E946621827274
:1010D00021F70E949B1022C2C2308CE5D80708F489
:1010E00052C0F8018281882309F459C00E94F52179
:1010F000811102C00E9463220E94082290E0909316
:10110000AC038093AB03FE01E350FC45E231F105F3
:1011100030F4EB59FF4F8091AB030C94F132809186
:10112000AB03816027C0826025C0846023C08061DA
:1011300021C080621FC080641DC080681BC08460A5
:10114000886018C08E7F16C08D7F14C08B7F12C040
:101150008F7E10C08F7D0EC08F7B0CC08F770AC032
:101160008B7F877F07C087FB222720F991E092279A
:1011700090FB87F98093AB038091AB030E940C2214
:101180000E94341BCBC1C1159CE5D90781F0C13049
:10119000DC45A9F081E080934B0280934C02C801AA
:1011A000DF91CF911F910F91FF900C946D07F80183
:1011B0008281882309F4B2C10E94EC07AFC1F80113
:1011C0008281882309F4AAC180912E0381608093D3
:1011D0002E03A4C1F8018281882309F49FC10E94D3
:1011E00004119CC1C631DC45A9F60E946621982FE6
:1011F000F801828120910F0130911001882379F04C
:101200009A7A81E009F480E080934602911102C04D
:1012100069E201C065E3C9010E94CB220AC0809146
:101220004602811102C069E201C065E3C9010E9462
:10123000D6220E94332172C1F8018281C83CFCE5AC
:10124000DF0731F4882309F469C10E94021066C1E6
:10125000C93C9CE5D907C8F4C63CECE5DE0731F48F
:10126000882309F45BC10E94D40F58C1C73CDC45F8
:1012700030F4882309F452C10E94B10F4FC1882372
:1012800009F44CC10E94EB0F49C1CA3C9CE5D90747
:1012900031F4882309F442C10E9442103FC1CB3C83
:1012A000DC4530F4882309F439C10E94221036C18C
:1012B000882309F433C10E94710E30C1C43DFCE59E
:1012C000DF0791F4F8018281882309F427C10E9485
:1012D000680E893128F00E94680E823208F4F9CE37
:1012E00089E10E94AC101AC1C53D8CE5D80708F011
:1012F00068C0F8018281C03DFCE5DF0771F48823F6
:1013000009F40CC10E94680E893028F00E94680E12
:101310008E3008F4DECE89E0E4CFC13D9CE5D907EC
:1013200040F5CE3CECE5DE0771F4882309F4F6C005
:101330000E94680E823028F00E94680E853008F402
:10134000C8CE82E0CECFCF3CDC4528F4882309F418
:10135000E5C081E0C6CF882309F4E0C00E94680E92
:10136000863028F00E94680E883008F4B2CE86E0FD
:10137000B8CFC23D9CE5D90771F4882309F4CEC0EB
:101380000E94680E853128F00E94680E873108F4AB
:10139000A0CE85E1A6CFC33DDC4570F4882309F4D7
:1013A000BDC00E94680E8F3028F00E94680E843104
:1013B00008F48FCE8FE095CF882309F4AFC088E181
:1013C00090CFC83DFCE5DF0759F5F80182818823FD
:1013D00061F010924C020E947A2390934A0280930B
:1013E000490280E20E942E1899C080914C02882305
:1013F00021F080E20E94351891C0809149029091BD
:101400004A020E948623883C910598F780E20E9458
:10141000351888E20E94941688E20E94BE177EC0AA
:10142000C93D8CE5D80708F058C0F8018281C63D57
:10143000FCE5DF0751F5882351F010924B020E9422
:101440007A23909348028093470282E0CBCF0E9498
:10145000662185FF05C081E080934B0280934C029A
:1014600080914B0281110FC08091470290914802F8
:101470000E948623883C910530F486E20E949416EF
:1014800086E20E94BE1782E0B5CFC73DDC4528F456
:10149000882309F443C083E224CF81119ACF0E94AC
:1014A000662181FF05C081E080934B0280934C024E
:1014B00080914C0281119DCF8091490290914A0206
:1014C0000E948623883C910508F093CF87E20E9412
:1014D000941687E20E94BE178CCFCC3DECE5DE0768
:1014E00041F4F80182818823C9F082E00E94B52A84
:1014F00015C0CD3DFCE5DF0739F4F8018281882372
:1015000069F00E9463220AC0CB3DDC4509F042CE5F
:10151000F8018281882311F080E0E8CF80E0DF913C
:10152000CF911F910F91FF90089580E090E0089572
:10153000089524E5829FC0011124FC0126E0729FDA
:10154000E00DF11D1124E60FF11DEE0FFF1FE85213
:10155000FE4F859194910895880F991FFC01EC52DC
:10156000FE4F859194910895CF93DF930E94990A3D
:101570000E94740CEC018115904508F041C0C11522
:1015800080E4D80708F02DC1C83ED10510F5C03E53
:10159000D10508F0A5C1C83AD10578F4C53AD105FE
:1015A00008F0A7C0C130D10509F49AC108F44BC1B5
:1015B000C430D10508F094C146C1CF3BD10508F431
:1015C000A3C0C03CD10508F43EC1CE01805C9109A6
:1015D000FAC0C11590E2D90758F4C11521E0D2072D
:1015E00008F07EC1C03FD10508F42DC1D06578C197
:1015F000C11580E3D80708F0EAC0CE019F70E3C0B0
:10160000C11595E5D90708F044C0C11524E5D207F6
:1016100008F0FEC0C11582E5D80710F5C11591E5A7
:10162000D90708F0E1C0CE0174E0969587957A95C8
:10163000E1F7282F23703C2F337081E090E002C047
:10164000880F991F3A95E2F79C68922BCF70C69548
:10165000C69520E2C29FE0011124C82BD92B40C1BE
:101660009E01237033278C2F86958695C115D3450F
:1016700008F0BFC0C1E0D0E002C0CC0FDD1F2A954A
:10168000E2F720E2829FC0011124C82BD92BDC682D
:1016900027C1C1152AE5D207A0F4C11589E5D807ED
:1016A00008F0C1C0C11596E5D90708F4B6C0C11548
:1016B00028E5D20708F4C7C0DC2FCC27C06FD06A5A
:1016C0000FC1C1158BE5D80708F4BDC0C1159CE555
:1016D000D90708F4B5C0CE0190568115904208F0A4
:1016E000B2C08D2F8F710E94F00CDD27D0628F71F8
:1016F000A5C0C53AD10509F4A9C0C63AD10509F07B
:10170000A8C0C2E8D0E4ECC0C83AD10509F4A4C02E
:10171000C93AD10509F4A3C0CA3AD10509F4A2C057
:10172000CB3AD10509F4A1C0CC3AD10509F4A0C047
:10173000CB3BD10509F49FC0CC3BD10509F49EC039
:10174000CD3AD10509F49DC0C03BD10509F49CC038
:10175000CE3AD10509F49BC0CF3AD10509F49AC01D
:10176000C13BD10509F499C0C23BD10509F498C029
:10177000C33BD10509F497C0C43BD10509F496C019
:10178000C53BD10509F495C0C63BD10509F494C009
:10179000C73BD10509F493C0C83BD10509F492C0F9
:1017A000C93BD10509F491C0CD3BD10509F490C0E6
:1017B000CE3BD10509F48FC0CA3BD10509F48EC0D8
:1017C000C0E0D4E48DC00E94AC0AEC0189C0CE0117
:1017D0009927D3FF03C0EC01D86C82C0EC01D06C18
:1017E0007FC0DF70D06A7CC0DC2FCC27C16FD06A8D
:1017F00077C0C1E0D0E002C0CC0FDD1F2A95E2F730
:1018000020E2829FC0011124C82BD92BDA6868C05E
:10181000DC2FCC27C46FD06A63C0CF71DD27DC2FEB
:10182000CC27D0625DC0CE0124E0969587952A959D
:10183000E1F78F70CF70C06ED0E0D06AD82B50C067
:10184000DD27D0664DC0C0E0D0E04AC0C1E8D0E49A
:1018500047C0C3E8D0E444C0C2EED4E441C0C9EEFE
:10186000D4E43EC0CAEED4E43BC0C5EBD4E438C0F7
:10187000C6EBD4E435C0C3EBD4E432C0C4EBD4E44B
:101880002FC0C7EBD4E42CC0CCECD4E429C0CDEC01
:10189000D4E426C0C3E8D5E423C0CAE8D5E420C018
:1018A000C2E9D5E41DC0C4E9D5E41AC0C1E2D6E45A
:1018B00017C0C3E2D6E414C0C4E2D6E411C0C5E246
:1018C000D6E40EC0C6E2D6E40BC0C7E2D6E408C038
:1018D000CFE6D4E405C0C0E7D4E402C0CAE2D6E44F
:1018E000CE01DF91CF9108958238910549F1B0F48E
:1018F0008133910509F459C048F48932910509F4FE
:101900004FC08A32910509F455C008958533910579
:1019100009F441C08933910599F00895833E9105FA
:1019200031F138F4803E910591F0823E9105A9F0A5
:101930000895863E910501F1873E910539F108959C
:101940002091AB0320FD3BC021FD39C0089580915B
:10195000AB0380FF34C089E341C08091AB0382FFB9
:1019600030C08091AB0384FD2EC083EE37C08091E0
:10197000AB0382FD26C0F5CF8091AB0383FF25C06A
:101980008091AB0384FD1FC087EE28C08091AB031C
:1019900083FD1BC0F5CF8091AB0385FD18C019C036
:1019A0008091AB0385FD15C012C08091AB0386FD0D
:1019B00012C013C08091AB0386FD0FC00CC080EE37
:1019C0000DC082EE0BC080E009C086EE07C089E240
:1019D00005C085E303C08AE201C081E390E0089579
:1019E0009091AB0392FF0DC0282F2871283019F475
:1019F000877F846006C0282F2471243011F48B7FE8
:101A0000886093FF0DC0282F2871283119F4877E34
:101A1000846106C0282F2471243111F48B7E8861E3
:101A200094FD877E0895CF93DF93813020E892075D
:101A300068F0FB012281222349F0EC010E94400D55
:101A4000CE019F770E94880D0E94750D81E0DF9185
:101A5000CF9108958CE090E00E94043390E0A0E0E4
:101A6000B0E08093600390936103A0936203B0930E
:101A700063030895609160038CE090E00C94183348
:101A80000E94662180934D020E947921809160031B
:101A9000813071F048F08230D9F08430F9F486EE6C
:101AA0000E94261888E118C082EE0E94941616C083
:101AB00080EE0E94941681EE0E94941688E10E94A6
:101AC000261881EE0E94BE1780EE0E94BE1706C047
:101AD00082EE0E94941687E50E9426188FE39CE907
:101AE0000197F1F700C000000895809160038130F4
:101AF00021F038F0823029F007C08CE20E942618CD
:101B000003C082EE0E94BE1780914D020C94762194
:101B10000F931F93CF93DF938C01CCE0D0E0C801EB
:101B20000C2E02C0969587950A94E2F78F700E945A
:101B3000D8070E9426182497CC3F8FEFD80779F753
:101B4000DF91CF911F910F9108950F931F93CF9322
:101B5000DF93EC018B01FB018281882319F1C23EE6
:101B6000FCE5DF07C1F050F4C03EECE5DE0781F094
:101B7000C13EFCE5DF07B1F481E010C0C33E8CE557
:101B8000D80759F0C43EECE5DE0761F484E006C0F6
:101B90001092600305C082E001C083E0809360037F
:101BA0000E943A0DB801CE01DF91CF911F910F91A4
:101BB0000C94130DEF92FF920F931F93CF93DF932B
:101BC000E901662309F44BC0242F30E0EFEFF0E089
:101BD000E61BF109B901E69F9001E79F300DF69FE2
:101BE000300D1124232F8B01031B11095CE3E52E1B
:101BF000F12CB7010E94C932FB01BC01069FC00154
:101C0000079F900D169F900D1124B7010E94C932B5
:101C1000E230F105B1F040F4309779F0319711F5E9
:101C2000832F242F461B21C0E430F105A1F068F07A
:101C30003597C1F4842F861B18C0832F262F230FBE
:101C400014C0862F830FE42F03C0E42FE61B842FDC
:101C5000432F2E2F0AC0842F462F430F06C0842FF8
:101C6000242F03C080E020E040E0E42FF0E0E451C6
:101C7000FB4F4491E22FF0E0E451FB4F9491E82FA9
:101C8000F0E0E451FB4FE49149839883EA83DF91CC
:101C9000CF911F910F91FF90EF90089588E090E011
:101CA0000C940C33AB01BC0188E090E00C942A3317
:101CB000E4E6F3E083E08083109265038FEF828394
:101CC0008383148260817181828193810C94520E8E
:101CD0008091640380FF03C086958F73089580E030
:101CE00008958091680390E001968430910514F086
:101CF00083E090E0809368036091640370916503D2
:101D000080916603909167030C94520E8091680352
:101D100090E0019797FF02C080E090E08430910549
:101D200014F083E090E08093680360916403709105
:101D3000650380916603909167030C94520E809125
:101D4000640380FF06C06FE070E089E693E00C94C6
:101D50009D14E9E6F3E0118210821282349683E04A
:101D6000E53AF807C1F7EFCF9091640390FF0CC0FC
:101D7000E9E6F3E0818360834283349693E0E53AB9
:101D8000F907C1F70C949F0E0895CF93DF9300D00D
:101D900000D0CDB7DEB72091640320FF0AC09E01BA
:101DA0002F5F3F4F0E94DA0D4B8169818A810E942B
:101DB000B40E0F900F900F900F90DF91CF91089578
:101DC0005F926F927F928F929F92AF92BF92CF92CB
:101DD000DF92EF92FF920F931F93CF93DF9300D088
:101DE00000D0CDB7DEB78C01E62EF42E522E8091B6
:101DF000640380FF89C0982F9E77923061F49E0122
:101E00002F5F3F4FC8010E94DA0D4B8169818A81A3
:101E10000E94B40E59C0E82FE695EF739EE39E0F23
:101E20009F73943018F4F09067034EC09AE39E0FAE
:101E30009F73993068F4881F8827881F90916503E5
:101E4000292F220F022F082B97FB112710F93CC0D6
:101E500087E28E0F8F738A30B8F5F0E07997E0FD56
:101E600002C021E001C02FEFEE7FEE51FB4F8591C4
:101E700094916FE070E00E94C93226034001279FD1
:101E8000900C1124580188E9A81A8EEFB80A89E647
:101E9000C82E83E0D82E98E6692E77247394C50166
:101EA000B3010E94C93296014F2D6E2D0E94DA0DAA
:101EB000A80CB91C84E0C80ED11C85EAC81683E0C2
:101EC000D80669F70E949F0E8091640300FB87F992
:101ED00080936403902F9695809165038078892B79
:101EE00010FB87F980936503E0926603F092670325
:101EF000552051F0609164037091650380916603F1
:101F0000909167030E94520E0F900F900F900F90C8
:101F1000DF91CF911F910F91FF90EF90DF90CF90C5
:101F2000BF90AF909F908F907F906F905F9008953B
:101F3000282FE4E6F3E03081331F3327331F40912D
:101F40006503542F550F852F832B47FB992790F955
:101F50000C9668E671E00E94DD32438162810C9448
:101F6000E00E81E00C94980F282F30916403331F0A
:101F70003327331F40916503542F550F852F832B33
:101F800047FB992790F98C3091051CF4845A9E4F99
:101F900005C00C9768E671E00E94DD32409167034E
:101FA000609166030C94E00E81E00C94B40FE4E6BB
:101FB000F3E03081331F3327331F90916503592F8E
:101FC000550F97FB992790F9282F43816FEF852FA5
:101FD000832B0C94E00E81E00C94D70FE4E6F3E041
:101FE0003081331F3327331F90916503592F550FCD
:101FF00097FB992790F9282F438160E0852F832B49
:102000000C94E00E81E00C94EE0F40916703242FB6
:1020100030E0243F310514F4445F01C04FEF3091AC
:102020006403331F3327331F90916503592F550FD6
:1020300097FB992790F9282F60916603852F832BB2
:102040000C94E00E81E00C94051040916703242F5E
:1020500030E02C30310514F04C5001C040E030919C
:102060006403331F3327331F90916503592F550F96
:1020700097FB992790F9282F60916603852F832B72
:102080000C94E00E81E00C94251020E00C94E00EFE
:10209000CF939091640390FF40C09178811102C06A
:1020A000926007C0853210F0986403C08F73880F68
:1020B000982B90936403662351F0609164037091B0
:1020C000650380916603909167030E94520EC09150
:1020D00064036C2F66956F7370E04BE050E084E012
:1020E00091E00E94F732892B19F010926B0203C025
:1020F00081E080936B02CC1FCC27CC1F90916503AD
:10210000892F880F97FB992790F940916703609179
:1021100066038C2BCF910C944510CF910895682FB6
:102120009091640396959F7381E0890F853208F042
:1021300081E00C94481081E00C948F10682F9091EE
:10214000640396959F738FEF890F09F484E20C94D2
:10215000481081E00C949E1061E00C944810E4E675
:10216000F3E080818160808386958F730C94AC103E
:1021700060E00C94481080912E03816080932E03C0
:102180000E94F521811104C00E9463220E94580E12
:102190000E944E0E60936403709365038093660300
:1021A000909367036E7761F40E94580E0E944E0E62
:1021B0006093640370936503809366039093670351
:1021C00081E080936B028091640380FF04C0869558
:1021D0008F730C94B8100895E4E6F3E080818E7F4D
:1021E000808360817181828193810E94520E10925E
:1021F0006B022FEF80E792E0215080409040E1F7A2
:1022000000C000000C949F0E8091640380FD0C942C
:10221000EC100C94AF10CF93C82F8091690290916D
:102220006A020E948623EC2FF0E0E252FB4FE49119
:10223000F0E08E179F0708F443C00E947A23909322
:102240006A02809369026091680270E080E090E029
:102250000E94CA3020E030E04FE753E40E94ED2FA7
:102260002BED3FE049E450E40E94F3310E946032DC
:102270000E9467302BE43AE34EE25FE30E94802F36
:1022800020EF3BEF48ED52E40E94F3310E94993079
:10229000462F80916403881F8827881F90916503CB
:1022A000292F220F97FB992790F960916603822BC3
:1022B0000E94C50E8091680290E0019680936802AA
:1022C000CF910895CF93C82F8091660290916702B5
:1022D0000E948623EC2FF0E0E552FB4FE491F0E002
:1022E0008E179F07E8F00E947A23909367028093ED
:1022F0006602409167036091660380916402909149
:1023000065020E94C50E809164029091650201965B
:1023100068E671E00E94C93290936502809364027E
:10232000CF910895CF92DF92FF920F931F93CF9397
:10233000DF93F82E80916202909163020E948623BF
:10234000EF2DE695F0E0E852FB4FE491F0E08E17B8
:102350009F07B8F10E947A239093630280936202F0
:1023600009E613E0C0E0D0E088E6C82EDD24D3946F
:1023700080916002909161028C0F9D1FB6010E94B6
:10238000C932980140916703609166030E94DA0D9B
:1023900068960C5F1F4FC83681E0D80749F70E9446
:1023A0009F0E8091600290916102F0FE05C001963F
:1023B000BE010E94C93201C00197909361028093CF
:1023C0006002DF91CF911F910F91FF90DF90CF902E
:1023D0000895CF92DF92EF92FF920F931F93CF93C6
:1023E000DF93C82F80FF02C01FEF01C011E0809172
:1023F0005E0290915F020E948623C695EC2FF0E06A
:10240000EB52FB4FE491F0E08E179F0708F45BC09E
:102410000E947A2390935F0280935E0229E6E22E67
:1024200023E0F22EC0E0D0E0F70111821082128288
:1024300094E0C92ED12C00E080915D02800F87FDD1
:10244000815F082E000C990BC817D907E9F4809119
:1024500067038C9DA0018D9D500D112455954795C6
:102460005595479580916403881F8827881F909110
:102470006503592F550F97FB992790F997016091A4
:102480006603852B0E94DA0D010FF1E0CF1AD10807
:1024900099F6219684E0E80EF11CCF30D10521F6A3
:1024A0000E949F0E80915D02113031F4811102C0B3
:1024B0008EE007C0815005C090E00196BE010E94E9
:1024C000DD3280935D02DF91CF911F910F91FF90DC
:1024D000EF90DF90CF9008950F931F93CF93DF93EA
:1024E000C82F80915B0290915C020E948623EC2FA2
:1024F000F0E0EE52FB4FE491F0E08E179F0708F4F6
:1025000056C00E947A2390935C0280935B02C9E6D6
:10251000D3E0FE01118210821282349683E0E53A04
:10252000F807C1F700E010E080915A02082E000C75
:10253000990B08171907ECF080910301082E000C85
:10254000990B80179107ACF080916403881F88274E
:10255000881F90916503592F550F97FB992790F984
:102560009E014091670360916603852B0E94DA0DFE
:1025700003C0198218821A820F5F1F4F24960F30F2
:10258000110591F60E949F0E8091020190915A02CE
:10259000980F90935A0220910301280F2093030172
:1025A000121614F49E301CF0819580930201DF9185
:1025B000CF911F910F910895EF92FF920F931F9368
:1025C000CF93DF9380915802909159020E94862305
:1025D000883E9340D0F10E947A23909359028093D1
:1025E0005802C0915602D09157022196C170DD2742
:1025F000D0935702C093560289E6E82E83E0F82E66
:1026000010E008E7812F8695FE01E80FF11DCF014C
:102610008170992797014091670360916603FC01DF
:102620000E9FC0010F9F900D11240E94DA0D1F5FB5
:10263000F4E0EF0EF11C1F3029F7DF91CF911F91CD
:102640000F91FF90EF900C949F0EDF91CF911F910F
:102650000F91FF90EF900895CF93DF9300D000D0BB
:10266000CDB7DEB780915402909155020E94862327
:10267000E0EDF4E02591349182179307C0F1809149
:10268000530281110CC09E012F5F3F4F4FEF6FEF40
:1026900080E090E00E94DA0D8A81809353020E94CC
:1026A0007A23909355028093540280915202813094
:1026B00051F028F0823061F4409153020AC08091B9
:1026C000530240E007C06091530240E080E003C045
:1026D00040E080E060E00E94B40E8091520290E001
:1026E000019663E070E00E94DD32809352020F9009
:1026F0000F900F900F90DF91CF9108950F931F933C
:10270000CF93DF9380915002909151020E948623D3
:10271000843F914008F448C00E947A23909351026C
:1027200080935002C9E6D3E000E010E020914E0211
:1027300030914F0280916403909165030730110539
:102740001CF4232B79F002C0232B61F4881F882707
:10275000881F592F550F97FB992790F99E0140919B
:1027600067030AC0881F8827881F592F550F97FBBA
:10277000992790F99E0140E060916603852B0E94A5
:10278000DA0D0F5F1F4F24960F30110579F60E9466
:102790009F0E80914E0290914F0201968170992771
:1027A00090934F0280934E02DF91CF911F910F9132
:1027B000089580916B028823D9F190916403892F49
:1027C00086958F732EE3280F2F73243018F48250D0
:1027D0000C940B112AE3280F2F73233018F4865022
:1027E0000C94621127E3280F2F73263018F48950B8
:1027F0000C94921121E3280F2F73263018F48F5078
:102800000C94E9112BE2280F2F73233018F4855113
:102810000C946C12892F8E77803311F40C94DC1297
:10282000863411F40C942C13883411F40C947E1318
:102830000895882319F05198599A02C0519A5998CD
:102840005098589A95E09A95F1F70000509A589848
:1028500095E09A95F1F70000882311F0519A599864
:1028600085E08A95F1F7000008958BB18C7F8BB9D4
:102870005098589A5198599A85E08A95F1F7000036
:1028800008958AB18C7F8AB985E08A95F1F70000B6
:10289000519A599885E08A95F1F70000509A589816
:1028A00085E08A95F1F7000008955098589A85E0E0
:1028B0008A95F1F700005198599A85E08A95F1F7C9
:1028C00000000895CF93DF93D82FC8E08D2F807834
:1028D0000E941914DD0FC150C9F780E00E9419143D
:1028E00085E08A95F1F7000085E08A95F1F7000010
:1028F00080E0DF91CF9108952BB1342F30952323C1
:102900003BB1432B3FB7F894FC01680F791FE617E2
:10291000F70789F0819198E04BB9000000C087FF6C
:102920002BB9880F000000C000C000C02BB900C048
:102930009A9591F7ECCF3FBF0895AF92BF92CF9297
:10294000DF92EF92FF920F931F93CF93DF938C014F
:10295000EB01CFB6D090BC00F8948091BC008B7F87
:102960008093BC000E9435140E94411484E80E94A8
:102970006214CC0FDD1FCC0FDD1F78015801AC0EA7
:10298000BD1EEA14FB0431F0F70181917F010E9422
:102990006214F7CF0E945514CFBED092BC00579A54
:1029A00040E8BE01C801DF91CF911F910F91FF90C8
:1029B000EF90DF90CF90BF90AF900C947C149093E9
:1029C0007102809370020895E0917002F09171029B
:1029D000309721F00190F081E02D099480E0089576
:1029E000E0917002F0917102309799F020912001EE
:1029F000222359F02091AB0327FF07C0DC012C9163
:102A000011962C93119725E02C930280F381E02DF1
:102A100009940895E0917002F0917102309739F0B5
:102A200022E0DC012C930480F581E02D09940895C7
:102A300020916E0230916F022817390771F0909340
:102A40006F0280936E02E0917002F09171023097F4
:102A500021F00680F781E02D0994089520916C0201
:102A600030916D022817390771F090936D028093B1
:102A70006C02E0917002F0917102309721F00084B5
:102A8000F185E02D0994089585B7806885BF85B7E5
:102A9000806885BF089508950E9444150C944B15D5
:102AA00081E008950E9471230E9448040E94082436
:102AB0000C94BB10BF92CF92DF92EF92FF920F93D4
:102AC0001F93CF93DF93CDB7DEB72A970FB6F89455
:102AD000DEBF0FBECDBF0E9414050E9450158111AC
:102AE00011C08FEF89838A831B820E947A238160C1
:102AF000782F9D838C8349815A816B818D810E94BF
:102B00003F1654C083E7C82E82E0D82E00E010E0C4
:102B1000B02E802F0E945305E82EF60121916F01FF
:102B2000F82EF22631F40F5F1F4F0E30110581F79A
:102B3000D8CF80912E0381FD0E94590580E090E05E
:102B40002F2D30E0482FB901082E02C075956795EA
:102B50000A94E2F760FF25C08E83BF8281E090E097
:102B60006C0102C0CC0CDD1C4A95E2F72E2D30E042
:102B70002C213D21232B09F480E088870E947A23B1
:102B80008160782F9A8789874E815F8168858A85E1
:102B90000E943F16F801ED58FD4F80818C258083FF
:102BA00005C001968630910569F6BDCF0E949B2530
:102BB0000E94E414909172028917A9F00E94E41413
:102BC000809372022A960FB6F894DEBF0FBECDBF77
:102BD000DF91CF911F910F91FF90EF90DF90CF90F9
:102BE000BF900C94E9072A960FB6F894DEBF0FBE8B
:102BF000CDBFDF91CF911F910F91FF90EF90DF90AC
:102C0000CF90BF900895DC0111962C9111978C9173
:102C1000682F70E041E050E001C0440F8A95EAF768
:102C200012968C91129730E0882329F080919102BE
:102C30008823E9F006C0F901EF57FD4F90819423F6
:102C4000B1F086E0829FF001839FF00D1124E60F22
:102C5000F71FEE0FFF1FEF5DFE4F808191818D9377
:102C60009C93F901EF57FD4F8081482B06C0F90175
:102C7000EF57FD4F40958081482340830895CF93BF
:102C8000DF93CDB7DEB72B970FB6F894DEBF0FBE3C
:102C9000CDBF942F4F83252F588769877A878B87DD
:102CA0004A855B85452B31F02F3F31F481E09F3F12
:102CB00019F403C081E001C080E080FD04C0CE01B2
:102CC00007960E940316DE01119686E0FD0111921F
:102CD0008A95E9F785E0FE01379601900D928A9575
:102CE000E1F749815A816B817C818D819E810E94AF
:102CF000011E2B960FB6F894DEBF0FBECDBFDF913D
:102D0000CF910895FC01808191810E94D4209295F9
:102D10009F70963041F48091910291E089278093D1
:102D20009102909390020895CF93882309F424C1CF
:102D3000C82F8238C1F40E94E41481FD1DC169E3EB
:102D400080910F01909110010E94CB220E943321AB
:102D50002FEF81EE94E0215080409040E1F700C0D9
:102D6000000069E319C0833801F50E94E41480FD76
:102D700003C163E580910F01909110010E94CB2265
:102D80000E9433212FEF81EE94E02150804090404B
:102D9000E1F700C0000063E580910F019091100100
:102DA0000E94D622CF910C9433218438C1F40E9422
:102DB000E41482FDE1C067E480910F01909110015D
:102DC0000E94CB220E9433212FEF81EE94E021500C
:102DD00080409040E1F700C0000067E4DDCF8CEF59
:102DE0008C0F813A68F48C2F0E94C8278111C4C0CF
:102DF0006C2F80910F01909110010E94CB22D2CFB5
:102E000080E28C0F883048F4C77081E001C0880FE1
:102E1000CA95EAF70E946921C5CF8BE58C0F8330F4
:102E200078F4C53A29F0C63A31F083E890E005C05D
:102E300081E890E002C082E890E0CF910C941815F0
:102E400088E58C0F873108F08FC0C83A09F445C077
:102E5000C93A09F445C0CA3A09F445C0CB3A09F465
:102E600045C0CC3A09F445C0CB3B09F445C0CC3B46
:102E700009F445C0CD3A09F445C0C03B09F445C04A
:102E8000CE3A09F445C0CF3A09F445C0C13B09F434
:102E900045C0C23B09F445C0C33B09F445C0C43B2F
:102EA00009F445C0C53B09F445C0C63B09F445C01B
:102EB000C73B09F445C0C83B09F445C0C93B09F408
:102EC00045C0CD3B09F445C0CE3B09F445C0CA3BE3
:102ED00009F445C080E090E044C082EE90E041C03B
:102EE00089EE90E03EC08AEE90E03BC085EB90E03A
:102EF00038C086EB90E035C083EB90E032C084EBC5
:102F000090E02FC087EB90E02CC08CEC90E029C0C3
:102F10008DEC90E026C083E891E023C08AE891E040
:102F200020C082E991E01DC084E991E01AC081E2ED
:102F300092E017C083E292E014C084E292E011C0F4
:102F400085E292E00EC086E292E00BC087E292E05A
:102F500008C08FE690E005C080E790E002C08AE2FA
:102F600092E0CF910C942E15C03F30F08C2F0E9430
:102F7000A324CF910C949025CF910895882309F430
:102F800064C0823879F40E94E41481FF5EC069E372
:102F900080910F01909110010E94CB220E94332159
:102FA00069E310C08338B1F40E94E41480FF4DC07F
:102FB00063E580910F01909110010E94CB220E9445
:102FC000332163E580910F01909110010E94D62278
:102FD0000C943321843879F40E94E41482FF35C0C4
:102FE00067E480910F01909110010E94CB220E9412
:102FF000332167E4E7CF9CEF980F913A10F4682FE4
:10300000E1CF90E2980F983050F4877091E001C0C2
:10301000990F8A95EAF7892F0E946F21D9CF9BE5F6
:10302000980F933020F480E090E00C94181598E508
:10303000980F973120F480E090E00C942E15803F9B
:1030400020F00E940B250C9490250895CF93C82F53
:103050000E9494168C2FCF910C94BE17882321F0D8
:103060000E9469210C9433210895882321F00E9445
:103070006F210C94332108958F929F92AF92BF924B
:10308000DF92EF92FF920F931F93CF93DF937C0118
:10309000D62FC72FFC01058102950F7012811111E7
:1030A0000E9489210E942C21882379F0112369F044
:1030B00080E28D0F883048F082E00E9415210E9446
:1030C0002C2191E0D82ED92601C0D12CBC2EB2944F
:1030D0008FE0B8228B2D90E0FC01E958FF4F0C9453
:1030E000F1328C2F807FCF70882311F0C295C07F82
:1030F000112399F0CC2309F4BCC180E28D0F8830F4
:1031000010F0D11104C08C2F0E94692103C08C2FB4
:103110000E947C210E943321ACC18D2F0E94BE17DA
:10312000CC2309F422C280E28D0F883010F0D11137
:1031300004C08C2F0E946F2103C08C2F0E9482211B
:103140000E94332112C28C2F807FCF70803211F009
:10315000C295C07FDD2319F0D130C9F021C0112301
:1031600071F0002341F0013031F40E94A2218C2B38
:103170000E949C21FAC10E94A2218C2B33C1002302
:1031800019F0013009F4F1C10E949F2111C01123EF
:1031900021F0023008F0E9C107C00111E6C108C002
:1031A000112321F0011165C18C2F1CC1011172C1C5
:1031B0008C2F1EC18C2F86958695837019F08130D7
:1031C00061F0D3C1112321F08D2F9C2F937002C089
:1031D00080E090E00E941815D5C1112321F08D2FB9
:1031E0009C2F937002C080E090E00E942E15CAC10F
:1031F0001123F9F0D53F51F0D63F71F0D43FA9F437
:103200008091A5039091A60381600BC08091A503D6
:103210009091A603826005C08091A5039091A603BA
:1032200084609093A6038093A5038D2F0E94A3240E
:103230001EC0D53F51F0D63F71F0D43FA9F4809124
:10324000A5039091A6038E7F0BC08091A50390915A
:10325000A6038D7F05C08091A5039091A6038B7F67
:103260009093A6038093A5038D2F0E940B250E94A7
:10327000902588C18C2F837009F04CC011117EC13C
:103280002D2F229526952770220F220F6D2F6F70FC
:10329000862F90E0A0E0B0E04C015D01022E04C05A
:1032A000880C991CAA1CBB1C0A94D2F7D4FF12C02C
:1032B0008FE090E0A0E0B0E004C0880F991FAA1F43
:1032C000BB1F2A95D2F7BC01CD0160957095809502
:1032D000909503C060E070E0CB01C695C695C370C1
:1032E000C23051F080F4682979298A299B29C1309C
:1032F00071F00E94521F42C1682979298A299B29AD
:103300000E94641F3BC10E94521FC501B4010E946C
:10331000401F34C1112319F08C2F817001C0869594
:10332000882309F42BC12D2F229526952770220F73
:10333000220F6D2F6F70862F90E0A0E0B0E04C015F
:103340005D01022E04C0880C991CAA1CBB1C0A94A7
:10335000D2F7D4FF12C08FE090E0A0E0B0E004C04C
:10336000880F991FAA1FBB1F2A95D2F7BC01CD0158
:10337000609570958095909503C060E070E0CB01FA
:10338000C695C695C370C23051F080F4682979297A
:103390008A299B29C13071F00E941720EFC068294B
:1033A00079298A299B290E942920E8C00E94172098
:1033B000C501B4010E940520E1C08D2F90E0FC0101
:1033C000E05EF109E531F10508F04FC0E957FF4F24
:1033D0000C94F132DF708C2F8F71112331F00E9429
:1033E0009E1F8D2F0E942E18C0C00E94BF1F8D2FC0
:1033F0000E943518BAC0112339F00111B6C08C2FC4
:103400008F710E94E41FB1C0023008F0AEC0F7CF48
:10341000112339F08C2F8F710E949E1FA6C011239B
:10342000C9F38C2F8F710E94BF1F9FC0112329F0F9
:103430008C2F8F710E94891F98C00E94841F95C095
:10344000112349F0CF718C2F0E949E1F63E08C2FB7
:103450000E940C218AC081E00E941521023008F4EC
:1034600084C082E00E94152180C0112331F0002326
:1034700089F28D2F0E94941678C0002391F2D933DF
:1034800049F4FFEF27EE83E0F15020408040E1F760
:1034900000C000008D2F0E94BE1767C04C2F4F70D8
:1034A0006D2FC7010E94950A0E94AF1E6BC0D23FCC
:1034B000B1F028F4D03F49F0D13FF9F028C0D43F13
:1034C000B9F058F0D53F71F022C0112309F447C07C
:1034D0009091910281E0892708C081E0182710931C
:1034E00091023DC011113BC081E08093910237C031
:1034F000111135C01092910232C0112329F0809130
:103500009002882329F329C0002311F328C0809159
:1035100090020023C1F0882341F09091910281E054
:10352000892780939102109290028D2F112319F018
:103530000E94941614C00E94BE1786E0F7011192F3
:103540008A95E9F70CC0882351F0111108C09091B9
:10355000910281E0892780939102109290024C2F72
:103560004F706D2FC7010E94980AF8E0BF1631F026
:10357000BF1640F086EF8B0D823020F40E94E414D9
:103580000E94E907DD20E1F00E94082180FD18C0BB
:10359000F70112820E9402210E949E1FC7010E9411
:1035A000EC1A0E940221DF91CF911F910F91FF90A1
:1035B000EF90DF90BF90AF909F908F900C94BF1FC3
:1035C000DF91CF911F910F91FF90EF90DF90BF900F
:1035D000AF909F908F9008950F931F93CF93DF9399
:1035E000EC01988189812B813C81232B31F08F3F25
:1035F00031F481E09F3F19F403C081E001C080E015
:1036000080FD13C0CE010E94FB07882371F0688102
:1036100079818A810E94DF208C010E943B200E94D8
:103620002C1FB801CE010E943C18DF91CF911F9151
:103630000F9108950E9489210E9499210E943321AF
:103640000E9432260E94902580E090E00E9418158A
:1036500080E090E00C942E1580910F019091100164
:103660000E94E1220C941A1B0E9479210C942C1BBD
:103670000E94D420E92FE295EF704E2F50E0FA011E
:103680003297EE30F105B0F4E456FF4F0C94F1326E
:10369000803F91F018F4803E68F40EC0843F51F4EE
:1036A0000BC0803E48F0813F29F406C093FB882779
:1036B00080F9089580E0089581E00895CF93DF9325
:1036C00000D000D01F92CDB7DEB70F900F900F90B3
:1036D0000F900F90DF91CF910895CF93DF9300D09B
:1036E00000D000D0CDB7DEB726960FB6F894DEBF77
:1036F0000FBECDBFDF91CF9108951F93CF93DF937E
:10370000C091920216E080919302C81799F0D0E020
:103710001C9FF0011D9FF00D1124EC56FD4F4081C0
:10372000518162817381848195810E946D1B2196F4
:10373000C770E9CFDF91CF911F9108954091C402E6
:103740005091C5026091C6027091C7028091C80273
:103750009091C9020C946D1BCF938091C902829500
:103760008F7009F05FC08091C602882309F45AC0A7
:1037700080919202B09193027091C402A091C5020F
:103780004091C7025091C80291E07F3F09F090E05C
:10379000692FC6E08B1709F445C04115510521F08A
:1037A000AF3F21F020E003C021E001C0262F90E0D0
:1037B00020FD35C0C89FF001C99FF00D1124EC56C3
:1037C000FD4F21812A132BC02081271328C022817D
:1037D000211125C0238134812417350710F421508D
:1037E0003109241B350B283C3105C8F42091C9024E
:1037F0002F7020612093C90226E0289FF001299FA5
:10380000F00D1124E756FD4F80818F708061808319
:1038100084EC92E00E94EC1ACF910C947D1B0196EF
:103820008770B8CFCF910895AF92BF92CF92DF92B9
:10383000EF92FF920F931F93CF93DF93CDB7DEB735
:1038400061970FB6F894DEBF0FBECDBF8C0185E047
:10385000F801DE011D9601900D928A95E1F7D801DD
:103860004C9111965C9111971296EC903091C40294
:103870006091C5028091C7029091C802009731F013
:103880006F3F31F421E03F3F19F403C021E001C054
:1038900020E0B22FB170BB2E20FD60C1F801C380C3
:1038A000D480A090C602AA2009F4EEC02091C902DB
:1038B000C816D90628F0D601A81BB90BCD0104C043
:1038C000809590958C0D9D1DFF24F394883C910567
:1038D00080F0F12C207F09F09CC07C2DD98AC88A09
:1038E0006E2D89890E945E1B84EC92E00E94EC1A86
:1038F0002DC1822F807F09F054C0561314C043138A
:1039000012C0FE2CE1100FC02F7020612093C9025D
:103910000E949E1B84EC92E00E94EC1A8091C902E6
:10392000F80185835CC1CD2831F05F3F31F481E03F
:103930004F3F19F403C081E001C080E080FD03C067
:1039400081E08E2502C080E090E0F82FF170FF2E1C
:1039500080FF1CC0809192022091930236E0821772
:1039600009F41AC190E0389FF001399FF00D11243D
:10397000EC56FD4F6181561306C06081461303C0AB
:103980006281E61203C001968770E9CFFE2CEE201B
:1039900009F425C18091C90281608093C902F12C8C
:1039A0001EC1561309C0431307C0E11005C0809122
:1039B000C902F8018583A4C04D875E878D859E85E9
:1039C0000E94381B882379F1EE2069F12091C90209
:1039D000822F82958F7090E0029774F08091C402DC
:1039E0009091C50298878F831986DB86CA862C87BB
:1039F000CE0107960E94EC1A86E0F801A4ECB2E032
:103A000001900D928A95E1F70E94AC1B0E949E1BCB
:103A10000DC0561771F04D875E878D859E850E947B
:103A2000381B81111AC0C8010E94EC1AFF24F394BC
:103A3000D6C04313F0CFE110EECF8091C902F80158
:103A40008583C8010E94EC1A86E0E4ECF2E0DF0115
:103A50001D928A95E9F7FA2CC2C0EE2021F320913D
:103A6000C902822F82958F7090E002972CF280918C
:103A7000C4029091C5029A8389831B82DD82CC8225
:103A80002E83CE010196B6CFC816D90628F0F601CE
:103A9000E81BF90BCF0104C0809590958C0D9D1DFE
:103AA000883C910548F0F12C7C2DD98AC88A6E2D6E
:103AB00089890E945E1B4AC0FE2CEE2009F4B3CF18
:103AC000561333C0431331C02091C90220FD24C0D6
:103AD000822F82958F70482F50E041155105E1F0FB
:103AE000D80115962C9315974F30510549F08F5FEB
:103AF000982F9295907F822F8F70892B15968C939B
:103B0000C8010E94EC1A86E0F801A4ECB2E0019032
:103B10000D928A95E1F73DC086E0F801A4ECB2E091
:103B200001900D928A95E1F75AC04D875E878D8589
:103B30009E850E94381B81115FCF8091C9028160F0
:103B40008093C902C8010E94EC1A49C0E4ECF2E07B
:103B500086E0DF011D928A95E9F71BC0EE2009F48B
:103B600062CF4D875E878D859E850E94381BF82E1B
:103B7000882309F458CF86E0F801A4ECB2E0019064
:103B80000D928A95E1F784EC92E00E9482160E94E1
:103B9000AC1B0E949E1B23C04D875E878D859E8532
:103BA0000E94D420292F22952F70223028F49F7054
:103BB00039F0811105C00BC0243028F49F7049F4FE
:103BC000805E883020F0C8010E94EC1ABF2CFB2CCC
:103BD00006C0D80115969C91907F91F7F8CF8F2D54
:103BE00061960FB6F894DEBF0FBECDBFDF91CF91C7
:103BF0001F910F91FF90EF90DF90CF90BF90AF900B
:103C000008951F93CF93DF93CDB7DEB72C970FB6F0
:103C1000F894DEBF0FBECDBF4F83588769877A8780
:103C20008B879C87CE0107960E94141C8823D1F0B5
:103C30009F8188852A853B85232B31F08F3F31F486
:103C400081E09F3F19F403C081E001C080E080FD66
:103C500047C04F81588569857A858B859C850E94F0
:103C60006D1B3EC086E0FE013796DE011196019085
:103C70000D928A95E1F7FF81E8856A857B8561155C
:103C8000710531F0EF3F31F481E0FF3F19F403C0DB
:103C900081E001C080E080FD23C02091930230E0EC
:103CA000C9010196877099274091920250E08417CC
:103CB0009507F1F1F983EA837D836C8396E0929F07
:103CC000D001939FB00D1124AC56BD4FFE0131962B
:103CD00001900D929A95E1F7809393020E947D1BCB
:103CE00016E08091920290919302891771F1189FCA
:103CF000C00111248C569D4F0E94141C882329F169
:103D0000E09192021E9FF0011124EC56FD4F40817C
:103D1000518162817381848195810E946D1B8091A4
:103D2000920290E001968770992780939202D9CFF2
:103D30000E94341B1092930210929202E4ECF2E083
:103D400086E0DF011D928A95E9F72C960FB6F8946C
:103D5000DEBF0FBECDBFDF91CF911F910895EF92CF
:103D6000FF920F931F93CF93DF938C01892B09F45C
:103D70006CC0F12CEE24E394E8012196F8018491C3
:103D8000843740F4843008F051C0813081F08230B3
:103D900019F15BC0853709F444C0A8F19CE7980F7E
:103DA000903708F052C08F770E94BE1741C00E5F57
:103DB0001F4FFE01849190E2980F983050F4877065
:103DC000FE2D01C0FF0F8A95EAF78F2F0E948C21EC
:103DD00014C00E9494162DC00E5F1F4FFE018491E7
:103DE00090E2980F983060F48770FE2D01C0FF0FAD
:103DF0008A95EAF78F2F0E9492210E94332119C0E1
:103E00000E94BE1716C00E5F1F4FFE01C491CC2347
:103E100081F08FE99FE00197F1F700C00000C150E9
:103E2000F6CF0E5F1F4FFE01F49003C00E94941660
:103E30008E018F2D882309F49FCFEFE9FFE03197A2
:103E4000F1F700C000008150F5CFDF91CF911F91B5
:103E50000F91FF90EF900895089508950C942D1FF1
:103E60000C942E1F0E94301F60930503709306036D
:103E700080930703909308030C941A1B0C94321F31
:103E80000F931F93009105031091060320910703E0
:103E900030910803602B712B822B932B1F910F9174
:103EA0000C94321F0F931F9300910503109106038A
:103EB0002091070330910803602371238223932309
:103EC0001F910F910C94321F0F931F9300910503C4
:103ED0001091060320910703309108036027712792
:103EE000822793271F910F910C94321F0C9439074E
:103EF0000E94761F60930103709302038093030373
:103F0000909304030C941A1B60E070E0CB010C94B6
:103F1000781F0F931F9341E050E060E070E08A014A
:103F20009B0104C0000F111F221F331F8A95D2F777
:103F3000C901B8011F910F910C94781F0F931F9323
:103F400041E050E060E070E004C0440F551F661F80
:103F5000771F8A95D2F78091010390910203A09177
:103F60000303B09104038A019B01082B192B2A2B10
:103F70003B2BC901B8011F910F910C94781F0F932F
:103F80001F9341E050E060E070E004C0440F551F13
:103F9000661F771F8A95D2F740955095609570956A
:103FA0008091010390910203A0910303B091040357
:103FB0008A019B01082319232A233B23C901B80145
:103FC0001F910F910C94781F0F931F9341E050E0C5
:103FD00060E070E004C0440F551F661F771F8A958C
:103FE000D2F78091010390910203A0910303B09155
:103FF00004038A019B01082719272A273B27C901A7
:10400000B8011F910F910C94781F0F931F9300918B
:104010000103109102032091030330910403602BEC
:10402000712B822B932B1F910F910C94781F0F9360
:104030001F9300910103109102032091030330911B
:10404000040360237123822393231F910F910C9407
:10405000781F0F931F930091010310910203209189
:1040600003033091040360277127822793271F9150
:104070000F910C94781F0895292F220F920F990FFA
:10408000890FE82FE695E695E695877051E001C027
:10409000550F8A95EAF785E0E89FF0011124E65371
:1040A000FD4F20E030E070E04081CB01022E02C0E5
:1040B000969587950A94E2F78170819584278523E8
:1040C000842781932F5F3F4F2530310569F708958D
:1040D000292F220F920F990F890F682F66956695E9
:1040E0006695982F977085E0689FB001112440E095
:1040F00050E080E0FB01E40FF51FE653FD4F208107
:1041000030E0092E02C0369527950A94E2F7217017
:104110003327042E01C0220F0A94EAF7822B4F5F47
:104120005F4F4530510531F70895CF92DF92EF92FE
:10413000FF920F931F93CF93DF938C01C0900103E5
:10414000D0900203E0900303F090040380910503F4
:1041500090910603A0910703B0910803C82AD92AB9
:10416000EA2AFB2ACFE1D0E0D701C6010C2E04C019
:10417000B695A795979587950A94D2F780FD04C0C8
:10418000219790F780E007C0B8018C2F0E94B40AF5
:104190000197B1F38C2FDF91CF911F910F91FF9079
:1041A000EF90DF90CF900895CF93DF93EC010E94C2
:1041B0009520BE010E94B40ADF91CF9108951F930C
:1041C000CF93DF93EB0190918F02992321F0CB01E4
:1041D0000E94D42013C0882349F0CB010E9495206F
:1041E000182F682FCE010E943C2004C0CB010E94F2
:1041F0006820182FBE01812F0E94B40ADF91CF9151
:104200001F91089580910903859585958595089559
:10421000809109038770089598E0899F9001112487
:10422000262B209309030C949E1F2091090380954F
:10423000822380930903982F977069F430E0482F08
:10424000082E000C550B2417350729F08595859508
:1042500085950C94BF1F089590910903977081E094
:1042600009F480E00895E0910F01F0911001809130
:104270002D038083E0910F01F091100190818091D6
:104280002C03892B8083E0910F01F0911001908124
:1042900080912B03892B808380910A03882381F0EE
:1042A000E0910F01F09110019081892B8083809122
:1042B0000F01909110010E946522811110920A0352
:1042C00080910F01909110010C94F01480912D03B6
:1042D000089590912D03892B80932D030895809547
:1042E00090912D03892380932D03089580932D03AE
:1042F000089510922D03089590912C03892B80939B
:104300002C030895809590912C03892380932C038E
:10431000089510922C03089590912B03892B80937C
:104320002B030895809590912B03892380932B0371
:10433000089510922B03089580930A030895109214
:104340000A03089580910A030895CF92DF92EF92B5
:10435000FF926C01EE24FF24C114D104E104F104A6
:1043600021F0C701B60120E101C020E0C72ED82E00
:10437000E92EFF24C114D104E104F10419F0285FEF
:10438000C701B6016B017C0154E0F694E794D79421
:10439000C7945A95D1F7C114D104E104F10419F07E
:1043A0002C5FC701B6016B017C0142E0F694E794F3
:1043B000D794C7944A95D1F7C114D104E104F1040C
:1043C00019F02E5FC701B601DC01CB01B695A795A8
:1043D00097958795892B8A2B8B2B09F02F5F822F3E
:1043E000FF90EF90DF90CF90089580E090E00E94E2
:1043F000123321E08D3E9E4F09F020E0822F089578
:1044000082E090E00C94043383E090E00C94043359
:1044100084E090E00C940433682F84E090E00C94E6
:104420001833AB01BC018FE090E00C942A33AB0150
:10443000BC0183E190E00C942A3360E070E0CB0192
:104440000C94172260E070E0CB010E9411220C94C2
:104450001D226DEE7EEF80E090E00E94363360E03A
:1044600082E090E00E94183360E083E090E00E94D8
:10447000183310920503109206031092070310924E
:10448000080360E084E090E00E94183360E085E07B
:1044900090E00E94183360E086E090E00E941833BC
:1044A0006FEF87E090E00E94183340E050E0BA01DF
:1044B00088E090E00E942A3360E08DE090E00E9466
:1044C00018330C9422220C942922FC0132968091FC
:1044D0002001882331F08091AB0387FF02C09EE169
:1044E00001C096E080E0915028F021912223D9F379
:1044F0008F5FF9CF08959C01FC0132969FEF80E019
:104500004191461789F09F3F19F4411101C0982F3E
:104510008F5F8630A9F79F3F39F0F901E90FF11D50
:1045200097FDFA956283089508959C012A5F3F4F95
:10453000FC014281461301C0128201968217930743
:10454000B9F70895262F2695269526952E3168F4DD
:10455000FC01E20FF11D677021E030E001C0220F85
:104560006A95EAF78281282B22830895262F2695C3
:10457000269526952E3170F4FC01E20FF11D67702F
:1045800021E030E001C0220F6A95EAF72095828190
:1045900028232283089520912001222329F02091AD
:1045A000AB0327FD0C94A2220C947B2220912001C6
:1045B000222329F02091AB0327FD0C94B6220C9402
:1045C000952220912001FC013296222331F0809126
:1045D000AB0387FF02C08EE101C086E0DF011D92C0
:1045E0008A95E9F7089508950C94F322CF930E94D9
:1045F0006B040E9414050E94F422C0E08C2F0E94DC
:104600005305811104C0CF5FCE30C1F701C081E0F6
:10461000CF9108950C94F3220C940A230E940C234A
:104620008091B103843049F110922F0320E488E196
:1046300090E00FB6F894A895809360000FBE209389
:10464000600080E00E94E9070E940C2383B7817F0D
:10465000846083BF83B7816083BF7894889583B774
:104660008E7F83BF0FB6F894A89580916000886113
:1046700080936000109260000FBE08950C94F322A6
:104680000E94341B0E94E4140E94E9070C943E230C
:104690001F920F920FB60F9211248F939F93AF9397
:1046A000BF9380912F03811113C08091A703909134
:1046B000A803A091A903B091AA034196A11DB11D21
:1046C0008093A7039093A803A093A903B093AA0390
:1046D000BF91AF919F918F910F900FBE0F901F9040
:1046E000189582E084BD93E095BD9AEF97BD8093C5
:1046F0006E0008952FB7F8948091A7039091A803B6
:10470000A091A903B091AA032FBF0895CF92DF9281
:10471000EF92FF920F931F932FB7F8944091A70346
:104720005091A8036091A9037091AA032FBF6A0159
:104730007B01EE24FF248C0120E030E0C016D1067E
:10474000E206F30610F4415051099A01281B390B77
:10475000C9011F910F91FF90EF90DF90CF900895C6
:1047600078941F920F920FB60F9211248F939F93FC
:10477000AF93BF938091A7039091A803A091A90341
:10478000B091AA030196A11DB11D8093A703909338
:10479000A803A093A903B093AA03BF91AF919F91DF
:1047A0008F910F900FBE0F901F901895F89481E095
:1047B0008093E00080E28093D800E9ECF0E0108282
:1047C0008FE19EE40197F1F700C000001DBA10923E
:1047D00068001CBC10BE1FBA10927A0010926E00C6
:1047E00010926F0010927100109272001082ECEB28
:1047F000F0E0108214B817B81AB81DB810BA1082B9
:1048000015B818B81BB81EB811BA0C94003F08951B
:104810000E94F521811102C00E9463220E940022A1
:1048200080932E030E94082290E09093AC03809323
:10483000AB030E940422682F70E080E090E00C94AB
:104840003E1F8091330380FF0BC06091140185E00F
:10485000689FB001112475956795759567952BC074
:1048600081FF09C06091140185E0689FB0011124A7
:104870007595679520C082FF07C06091140185E09F
:10488000689FB001112417C0909134039923D1F08F
:1048900060911301961788F72091140185E0289FF5
:1048A00090011124929FA001939F500D112470E05C
:1048B000CA010E94DD326038710540F4611571054E
:1048C00019F406C065E070E0862F08958FE708951B
:1048D00081E008958091330380FF08C06091120148
:1048E00070E0759567957595679521C081FF06C045
:1048F0006091120170E07595679519C082FF04C040
:104900006091120170E010C090913403992399F0E6
:10491000609111019617A0F780911201899FC00143
:10492000112470E00E94DD326038710540F4611599
:10493000710519F406C061E070E0862F08958FE7D5
:10494000089581E00895803F21F40E9421248195FB
:1049500004C0813F29F40E942124809338030895E4
:10496000823F21F40E942124819504C0833F29F4D1
:104970000E942124809337030895893F19F40E94EF
:104980006A2405C08A3F31F40E946A24819580938D
:10499000390308958B3F21F40E946A24819504C055
:1049A0008C3F29F40E946A2480933A030895843F3F
:1049B00021F480913603816017C0853F21F48091F6
:1049C0003603826011C0863F21F4809136038460F3
:1049D0000BC0873F21F480913603886005C0883F73
:1049E00031F48091360380618093360308958D3FC2
:1049F00021F48091330381600BC08E3F21F48091BC
:104A00003303826005C08F3F29F4809133038460B3
:104A1000809333030895803F39F48091380387FFF2
:104A20006CC01092380369C0813F29F4809138032B
:104A30001816BCF362C090913703823F29F497FFA8
:104A40005CC01092370359C0833F19F41916CCF398
:104A500054C0893F41F48091390318160CF04DC0C1
:104A6000109239034AC08A3F29F48091390387FFA5
:104A700044C0F6CF8B3F39F480913A0387FF3DC0A5
:104A800010923A033AC08C3F29F480913A031816E9
:104A9000BCF333C0843F21F4809136038E7F17C06E
:104AA000853F21F4809136038D7F11C0863F21F42C
:104AB000809136038B7F0BC0873F21F480913603B2
:104AC000877F05C0883F31F4809136038F7E8093C5
:104AD000360313C08D3F21F4809133038E7F0BC0CA
:104AE0008E3F21F4809133038D7F05C08F3F29F4E1
:104AF000809133038B7F809333038091370381113F
:104B00000EC08091380381110AC080913903811150
:104B100006C080913A03811102C0109234030895B7
:104B200085E393E00E940A150E947A239093310353
:104B30008093300308951F93CF93DF9380913003C8
:104B4000909131030E948623AC0190913403992304
:104B500021F02091150130E006C0209132038AE057
:104B6000289F900111244217530708F477C08091C1
:104B70003703C0913803D091390310913A03811162
:104B800007C0C11167C0D11165C0111163C066C0F3
:104B90009F3F19F09F5F90933403181624F40E94EE
:104BA0002124809337038091370387FF05C00E943B
:104BB00021248195809337031C1624F40E9421241C
:104BC000809338038091380387FF05C00E94212419
:104BD000819580933803309137033323C1F02091BE
:104BE00038032223A1F045EB3403C0011124892F9F
:104BF000911101C081E08093370335EB2303C0019D
:104C00001124892F911101C081E0809338031D1672
:104C100024F40E946A24809339038091390387FF2A
:104C200005C00E946A24819580933903111624F4EB
:104C30000E946A2480933A0380913A0387FF05C05B
:104C40000E946A24819580933A03DF91CF911F914E
:104C50000C9490259F3F09F09DCFAECFDF91CF916F
:104C60001F910895E5E3F3E086E0DF011D928A9548
:104C7000E9F710923403109233030895833081F1E1
:104C800028F4813059F08230D1F00895853009F44C
:104C900049C0B8F1863009F456C0089580913203B6
:104CA000262F30E0280F311D2F3F310524F4680FE7
:104CB0006093320308958FEF8093320308958091BB
:104CC0001501262F30E0280F311D2F3F310524F428
:104CD000680F6093150108958FEF80931501089573
:104CE00080911401262F30E0280F311D2F3F310510
:104CF00024F4680F6093140108958FEF80931401DA
:104D0000089580911301262F30E0280F311D2F3F89
:104D1000310524F4680F6093130108958FEF809399
:104D20001301089580911201262F30E0280F311DC4
:104D30002F3F310524F4680F6093120108958FEF1F
:104D400080931201089580911101262F30E0280FE1
:104D5000311D2F3F310524F4680F60931101089530
:104D60008FEF809311010895833011F128F4813081
:104D700049F0823091F00895853081F120F186303C
:104D8000C1F1089580913203681720F4861B809347
:104D90003203089510923203089580911501681727
:104DA00020F4861B80931501089510921501089533
:104DB00080911401681720F4861B809314010895D4
:104DC00010921401089580911301681720F4861B36
:104DD0008093130108951092130108958091120198
:104DE000681720F4861B8093120108951092120117
:104DF000089580911101681720F4861B809311019A
:104E000008951092110108950F931F9341E050E00F
:104E100060E070E08A019B0104C0000F111F221F97
:104E2000331F8A95D2F7C901B8010E943E1F1F9116
:104E30000F910C94341B873208F04DC08E3108F06E
:104E40008FC0803109F479C008F5873009F467C054
:104E500068F4863009F08BC080912E03817F8E7FAD
:104E600080932E0381E080933C0308958B3009F4F6
:104E70007AC08E3009F07BC080912E0382FB2227FE
:104E800020F991E0922790FB82F960C0863109F405
:104E90006AC088F4813109F06AC00E94341B809195
:104EA000AB0387FB222720F991E0922790FB87F93B
:104EB0008093AB0358C0893109F455C08B3109F098
:104EC00056C080912E0381FB222720F991E0922782
:104ED00090FB81F93BC0883309F445C048F489321E
:104EE00009F443C0853309F440C08732F1F13FC073
:104EF0008334D9F120F48A33D0F1895332C0883415
:104F0000B1F50E94341B2FEF83ED90E321508040D8
:104F10009040E1F700C000000E94D62324C0809199
:104F20002E03982F9095917090FB80F980932E031B
:104F3000911119C0897F877F10C080912E0383FB58
:104F4000222720F991E0922790FB83F980932E038A
:104F5000992349F080912E03816080932E0303C032
:104F60008D510E94042781E0089580E0FACF80E00F
:104F7000089580E008950C94B9278E518A3030F45A
:104F8000E82FF0E0E753FE4F8081089580E0089518
:104F9000CF93C82F80913C03813079F018F0823094
:104FA000E9F185C0E0910F01F0911001808181311C
:104FB00069F0823209F07DC009C0E0910F01F091E3
:104FC00010018081813111F0823261F48C2F0E94B6
:104FD000BB27811104C08C2F0E941B271DC081E0BC
:104FE00090E01AC08C2F0E94B927811114C0C431DF
:104FF00079F048F4CB3079F0C03109F05EC082E03E
:1050000080933C0308C0C93219F0C83321F055C061
:1050100010923C0352C081E0817051C0C93279F1D5
:1050200008F5C43161F1A0F4C73009F044C0109212
:10503000320384E180931501C09314018CE38093C3
:10504000130188E08093120188E28093110133C03C
:1050500082EE8C0F863078F58C2F0E94BD278093CE
:105060003B0329C0CE34E9F020F4CB3421F56AE0CB
:1050700013C0C13579F0C235F1F461E00DC0809103
:105080003B03882319F010923B0315C081E0809305
:105090003C0315C061E006C080913B030E943E26A0
:1050A0000AC06AE080913B030E94B42604C01092BB
:1050B0003C0380E004C081E002C080E0ADCFCF912E
:1050C000089580915D0308950F931F93CF93DF930D
:1050D00000D01F92CDB7DEB78C010E94C52A823066
:1050E00011F0843021F584E089831B830A8382E0F8
:1050F0008093E9008FEF9091E800815095FD06C004
:1051000095ED9A95F1F700008111F5CF8091E800B7
:1051100085FF0DC040E050E063E070E0CE010196F5
:105120000E94E22A8091E8008E778093E8000F9039
:105130000F900F90DF91CF911F910F910895CF9312
:10514000DF9300D01F92CDB7DEB72091B10324309A
:1051500031F523E02983805891099B838A8382E07B
:105160008093E9008FEF9091E800815095FD06C093
:1051700095ED9A95F1F700008111F5CF8091E80047
:1051800085FF0DC040E050E063E070E0CE01019685
:105190000E94E22A8091E8008E778093E8000F90C9
:1051A0000F900F90DF91CF910895CF93DF93EC0193
:1051B0000E94C52A823011F08430F9F482E0809395
:1051C000E9008FEF9091E800815095FD06C095EDC4
:1051D0009A95F1F700008111F5CF8091E80085FFE5
:1051E0000CC040E050E066E070E0CE010E94E22A90
:1051F0008091E8008E778093E800DF91CF91089549
:10520000CF93DF93EC010E94C52A823011F08430E5
:10521000D9F580912001882339F08091AB0387FF75
:1052200003C060E282E002C068E081E08093E900B0
:105230008FEF9091E800815095FD06C095ED9A950D
:10524000F1F700008111F5CF8091E80085FF1CC0C7
:1052500080912001811105C040E050E068E070E0DD
:1052600003C070E040E050E0CE010E94E22A80914D
:10527000E8008E778093E80080E2FE01ADE3B3E0C2
:1052800001900D928A95E1F7DF91CF910895809179
:10529000B003811109C00E94732C0E94D02C809110
:1052A000E20084608093E20008951092B0030895B4
:1052B000089508950C94402342E061EC81E00E943F
:1052C000EC2B42E261EC82E00C94EC2B8091B30376
:1052D000833009F453C030F4813071F0823009F426
:1052E0008CC008958A3009F478C08B3009F45EC010
:1052F000893009F09AC020C08091B203813A09F048
:1053000094C08091E800877F8093E8008091B60385
:105310009091B703892B21F460E28DE393E003C001
:1053200060E080E090E070E00E942D2B8091E8002A
:105330008B778093E80008958091B203813209F061
:1053400074C08091B6039091B703029708F06DC0C6
:105350008091E800877F8093E8008091E80082FDDB
:1053600005C08091B1038111F8CF5FC08091F10039
:1053700080935D038091E8008B7753C08091B203E6
:10538000813A09F052C08091B6039091B703892BFE
:1053900009F04BC08091E800877F8093E8008091FE
:1053A000E80080FFFCCF8091200136C08091B203DD
:1053B0008132D9F58091B6039091B703892BA9F575
:1053C0008091E800877F8093E8000E94212C8091E3
:1053D000B403809320010C94341B8091B20381327A
:1053E00021F58091E800877F8093E8000E94212CBE
:1053F0008091B50380935E0308958091B203813A52
:10540000A1F48091E800877F8093E8008091E80014
:1054100080FFFCCF80915E038093F1008091E800D3
:105420008E778093E8000C94212C089584B7877FB1
:1054300084BF0FB6F894A89580916000886180932E
:105440006000109260000FBE80E8809361001092AF
:1054500061000E944C150E94732C0E94D02C8091F8
:10546000E20084608093E20078940E94652F0E949D
:10547000521586E191E00E94DF148091B1038530DE
:1054800069F40E940E238091AF038823B1F30E9438
:10549000F622882391F30E94CC2AEFCF0E945A155E
:1054A0000E94D913EACF0C94552A292F3327233091
:1054B0003105C9F060F42130310581F02230310529
:1054C00009F04AC08BE390E026E236E049C0213281
:1054D000310511F12232310579F13EC082E190E0CF
:1054E00021E636E03DC099278130910561F040F01A
:1054F0008230910559F0039779F5ECEEF5E008C09C
:10550000E2E2F6E005C0EAE0F6E002C0E2EFF5E034
:10551000849190E09F0124C06115710541F06130D4
:105520007105D1F489E090E021E536E019C089E009
:1055300090E028E336E014C06115710541F0613058
:10554000710551F480EC90E023E736E009C080E477
:1055500090E023E337E004C080E090E020E030E01A
:10556000FA013183208308950895CF93C82F0E94B4
:10557000B42AC0935F03CF9108958091B103843022
:1055800011F081E0089582E0089580915F03811118
:1055900002C00C94BD2A089580E189BD82E189BDD5
:1055A00009B400FEFDCF8091D8008F7D8093D80094
:1055B0008091E00082608093E0008091E00081FDB6
:1055C000FCCF0895CF92DF92EF92FF920F931F933B
:1055D000CF93DF93EC018B017A010E94402C811163
:1055E00033C0E114F10439F0F70180819181081B87
:1055F000190BC80FD91FC12CD12C0115110519F198
:105600008091E80085FD16C08091E8008E77809338
:10561000E800E114F10449F0F70180819181C80E9E
:10562000D91ED182C08285E00FC00E94402C882301
:1056300021F30AC089918093F10001501109FFEF15
:10564000CF1ADF0ADACF80E0DF91CF911F910F915F
:10565000FF90EF90DF90CF9008952091B8033091A4
:10566000B9032617370748F06115710539F4209101
:10567000E8002E772093E80001C0B901FC0120E08A
:105680006115710579F18091B1038823F1F18530BD
:10569000F1F18091E80083FD3CC08091E80082FD3B
:1056A0002EC08091E80080FFEBCF2091F300809125
:1056B000F20090E0922B6115710551F08830910550
:1056C00038F421912093F100615071090196F3CFD4
:1056D00021E0089709F020E08091E8008E77809320
:1056E000E800CECF2111CFCF0AC08091B10388232B
:1056F00061F0853061F08091E80083FD0AC08091FF
:10570000E80082FFF2CF80E0089582E0089583E010
:10571000089581E008952091B8033091B9032617C8
:10572000370748F06115710539F42091E8002E77AC
:105730002093E80001C0B901FC0120E0611571056A
:1057400091F18091B103882309F440C0853009F4B8
:105750003FC08091E80083FD3DC08091E80082FD5C
:105760002FC08091E80080FFE9CF2091F300809165
:10577000F20090E0922B6115710559F08830910587
:1057800040F424912093F100319661507109019603
:10579000F2CF21E0089709F020E08091E8008E77B1
:1057A0008093E800CBCF2111CCCF0AC08091B10308
:1057B000882361F0853061F08091E80083FD0AC0A4
:1057C0008091E80082FFF2CF80E0089582E00895A2
:1057D00083E0089581E00895982F973068F59093BD
:1057E000E900981739F07091EC002091ED0050918C
:1057F000F00003C0242F762F50E021FD02C09F5FF0
:10580000ECCF3091EB003E7F3093EB003091ED0018
:105810003D7F3093ED003091EB0031603093EB0031
:105820007093EC002093ED005093F0002091EE0077
:1058300027FDE5CF80E008958F708093E90081E037
:1058400008958091B20387FF11C08091E80082FD26
:1058500005C08091B1038111F8CF11C08091E8009B
:105860008B770BC08091B103882349F08091E800C9
:1058700080FFF8CF8091E8008E778093E80008954C
:105880002091E4003091E50095E64091EC00842FF2
:10589000817040FF23C08091E80080FD1DC0809191
:1058A000B103882399F0853099F08091EB0085FD54
:1058B00011C04091E4005091E5002417350729F309
:1058C000915011F09A01E1CF84E0089582E00895AB
:1058D00083E0089581E0089580E008954091E80014
:1058E00042FFDDCF08950E94E12C0E94E92CE0EEFA
:1058F000F0E0808181608083E8EDF0E080818F7747
:10590000808319BCA7EDB0E08C918E7F8C93808151
:105910008F7E80831092B00308950F931F93CF93CF
:10592000DF930E94E12C0E94E92CC8EDD0E0888131
:105930008F77888388818068888388818F7D88833A
:1059400019BC1092B1031092AD031092AF031092E4
:10595000AE0300EE10E0F80180818B7F80838881A8
:105960008160888342E060E080E00E94EC2BE1EE01
:10597000F0E080818E7F8083E2EEF0E080818160C4
:105980008083808188608083F80180818E7F80831E
:10599000888180618883DF91CF911F910F91089555
:1059A000E8EDF0E080818F7E8083E7EDF0E080819C
:1059B0008160808384E082BF81E08093B0030C9497
:1059C0008D2CE8EDF0E080818E7F80831092E200E4
:1059D00008951092DA001092E10008951F920F923C
:1059E0000FB60F9211242F933F934F935F936F93B2
:1059F0007F938F939F93AF93BF93EF93FF93809188
:105A0000E10082FF0BC08091E20082FF07C080911D
:105A1000E1008B7F8093E1000E94642F8091DA0087
:105A200080FF1FC08091D80080FF1BC08091DA00EA
:105A30008E7F8093DA008091D90080FF0DC080E1D5
:105A400089BD82E189BD09B400FEFDCF81E080936C
:105A5000B1030E94472905C019BC1092B1030E94EE
:105A600055298091E10080FF19C08091E20080FFFC
:105A700015C08091E2008E7F8093E2008091E20069
:105A800080618093E2008091D80080628093D8008A
:105A900019BC85E08093B1030E9459298091E100EF
:105AA00084FF30C08091E20084FF2CC080E189BD7A
:105AB00082E189BD09B400FEFDCF8091D8008F7DC1
:105AC0008093D8008091E1008F7E8093E1008091E7
:105AD000E2008F7E8093E2008091E20081608093FB
